:100000000C945D000C9485000C9485000C94850084
:100010000C9485000C9485000C9485000C9485004C
:100020000C9485000C9485000C9485000C944B0274
:100030000C9485000C9485000C9485000C9485002C
:100040000C9401020C9485000C9485000C9485009E
:100050000C9485000C9485000C9485000C9485000C
:100060000C9485000C9485000000000024002700FB
:100070002A0000000000250028002B0004040404CE
:100080000404040402020202020203030303030342
:10009000010204081020408001020408102001021F
:1000A00004081020000000080002010000030407FB
:1000B0000000000000000000230411241FBECFEF49
:1000C000D8E0DEBFCDBF11E0A0E0B1E0EAE7F9E0A3
:1000D00002C005900D92A030B107D9F721E0A0E051
:1000E000B1E001C01D92AE33B207E1F710E0CDE5FB
:1000F000D0E004C02197FE010E94B504CC35D107A1
:10010000C9F70E9422030C94BB040C94000090E0F9
:10011000FC01EC55FF4F2491FC01E057FF4F349157
:10012000FC01E458FF4FE491EE23C9F0222339F09B
:10013000233001F1A8F4213019F1223029F1F0E047
:10014000EE0FFF1FEE58FF4FA591B4918FB7F894B3
:10015000EC91611126C030953E233C938FBF0895EA
:100160002730A9F02830C9F0243049F78091800069
:100170008F7D03C0809180008F7780938000DFCFD8
:1001800084B58F7784BDDBCF84B58F7DFBCF809125
:10019000B0008F778093B000D2CF8091B0008F7D78
:1001A000F9CF3E2BDACF8E3008F08E508770806406
:1001B00080937C0080917A00806480937A008091A3
:1001C0007A0086FDFCCF80917800909179000895A7
:1001D0003FB7F89480913A0190913B01A0913C0186
:1001E000B0913D0126B5A89B05C02F3F19F001969F
:1001F000A11DB11D3FBFBA2FA92F982F8827BC0181
:10020000CD01620F711D811D911D42E0660F771FA8
:10021000881F991F4A95D1F70895CF92DF92EF92E8
:10022000FF92CF93DF93EC01603282E07807CCF548
:10023000653B710514F064EB70E0898128E830E0DB
:10024000281B310987FD3395220F331F220F331FDF
:100250006901330FEE08FF088A8128E532E0281B88
:10026000310987FD3395220F331F220F331F032ED1
:10027000000C440B550B2C193D094E095F09DB019D
:1002800077FF02C0B0E0A0E00E94610424EB30E000
:1002900040E050E00E943704C20ED31EE41EF51E5B
:1002A000B601E881EC3070F5298188E890E0821B86
:1002B000910927FD9395880F991F880F991F68173B
:1002C00079077CF02A8188E592E0821B910927FD5D
:1002D0009395880F991F880F991F681779070CF459
:1002E000CB010297880F991F4FB7F8942E2F30E05B
:1002F000F901EE0FFF1FE20FF31FEE5FFE4F928337
:1003000081834FBFDF91CF91FF90EF90DF90CF902F
:100310000895CF93DF93DC018C918C3008F06DC091
:10032000CB01FB01E057FF4F249184589F4FFC0104
:100330008491882399F090E0880F991FFC01E85977
:10034000FF4FC591D491FC01EE58FF4F85919491D8
:100350008FB7F894E881E22BE8838FBF8C91282F28
:1003600030E0F901EE0FFF1FE20FF31FEE5FFE4FCB
:10037000962F9F736081607C692B608311961C921D
:10038000119712961C9212972CE0622F0E949A04E9
:10039000829FB001112430E020E0AB01420F531FD7
:1003A000FA01EE0FFF1FE40FF51FEE5FFE4F908185
:1003B00096FD16C02F5F3F4F2C30310571F781112C
:1003C0000FC01092800082E080938100109285001F
:1003D00010928400B19A80916F00826080936F00C8
:1003E000EC918E2F90E0FC01EE0FFF1FE80FF91F3C
:1003F000EE5FFE4F8081806480838C91DF91CF918E
:1004000008951F920F920FB60F9211242F933F93CE
:100410008F939F93AF93BF93809136019091370153
:10042000A0913801B09139013091350123E0230FBB
:100430002D3758F50196A11DB11D209335018093EC
:10044000360190933701A0933801B0933901809120
:100450003A0190913B01A0913C01B0913D01019680
:10046000A11DB11D80933A0190933B01A0933C01E3
:10047000B0933D01BF91AF919F918F913F912F918B
:100480000F900FBE0F901F90189526E8230F02962D
:10049000A11DB11DD2CF1F920F920FB60F92112442
:1004A0002F933F934F935F936F937F938F939F937C
:1004B000AF93BF93CF93DF93EF93FF9380910001AE
:1004C000C0910101D0E087FF24C0109285001092F6
:1004D0008400809100018F5F809300018091000172
:1004E000082E000C990B8C179D0724F480910001B5
:1004F0008C30C4F180918400909185000496803402
:100500009C4908F47AC080918400909185000496FB
:1005100076C080910001082E000C990B8C179D0766
:10052000C4F6E09100018E2FEE0F990BFC01EE0F47
:10053000FF1FE80FF91FEE5FFE4F808186FFC9CFD6
:10054000E09100018E2FEE0F990BFC01EE0FFF1FC3
:10055000E80FF91FEE5FFE4F808160E08F730E940D
:100560008700B7CF2091840030918500E091000191
:100570008E2FEE0F990BFC01EE0FFF1FE80FF91FF6
:10058000EE5FFE4F81819281820F931F90938900CD
:1005900080938800E09100018E2FEE0F990BFC01F3
:1005A000EE0FFF1FE80FF91FEE5FFE4F808186FF01
:1005B00011C0E09100018E2FEE0F990BFC01EE0FA0
:1005C000FF1FE80FF91FEE5FFE4F808161E08F7320
:1005D0000E948700FF91EF91DF91CF91BF91AF9182
:1005E0009F918F917F916F915F914F913F912F914B
:1005F0000F900FBE0F901F90189580E49CE9909388
:100600008900809388008FEF80930001E3CFFC0185
:10061000909101019C3098F481E0890F8093010151
:100620009083892F90E0FC01EE0FFF1FE80FF91F68
:10063000EE5FFE4F88EB9BE09283818308958FEFFE
:1006400080830895789484B5826084BD84B5816088
:1006500084BD85B5826085BD85B5816085BD80918D
:100660006E00816080936E00109281008091810005
:1006700082608093810080918100816080938100FD
:10068000809180008160809380008091B1008460BF
:100690008093B1008091B00081608093B000809120
:1006A0007A00846080937A0080917A0082608093DF
:1006B0007A0080917A00816080937A0080917A003C
:1006C000806880937A001092C1006EE070E082E34F
:1006D00091E00E9489016FE070E08FE291E00E945A
:1006E000890160E170E08CE291E00E94890161E1A2
:1006F00070E089E291E00E94890162E170E086E2A7
:1007000091E00E948901CC24CA9493E0D92EE12C77
:10071000F12CC0E0D0E083E00E94D3009C01ACE467
:10072000BFEF0E94A604A70196010E943704CA01E8
:10073000B9016C547F4F8F4F9F4F82E391E00E942D
:100740000D0184E00E94D3009C01ACE4BFEF0E9445
:10075000A604A70196010E943704CA01B9016C548E
:100760007F4F8F4F9F4F8FE291E00E940D0185E0F8
:100770000E94D3009C01ACE4BFEF0E94A604A70135
:1007800096010E943704CA01B9016C547F4F8F4F04
:100790009F4F8CE291E00E940D0186E00E94D30001
:1007A0009C01ACE4BFEF0E94A604A70196010E9441
:1007B0003704CA01B9016C547F4F8F4F9F4F89E2B4
:1007C00091E00E940D0187E00E94D3009C01ACE4FF
:1007D000BFEF0E94A604A70196010E943704CA0138
:1007E000B9016C547F4F8F4F9F4F86E291E00E947A
:1007F0000D010E94E8002B013C018FE0882E912C16
:10080000A12CB12C0E94E80064197509860997098A
:10081000683E734081059105A8F321E0821A910892
:10082000A108B10888EE480E83E0581E611C711CB7
:1008300081149104A104B10429F7209709F46BCF26
:100840000E94000068CF82E391E00E9407038FE2DC
:1008500091E00E9407038CE291E00E94070389E285
:1008600091E00E94070386E291E00C940703052EB5
:1008700097FB1EF400940E944E0457FD07D00E947F
:10088000690407FC03D04EF40C944E045095409537
:10089000309521953F4F4F4F5F4F0895909580952C
:1008A000709561957F4F8F4F9F4F08950E948B04E5
:1008B000A59F900DB49F900DA49F800D911D1124B4
:1008C0000895B7FF0C9456040E945604821B930BA4
:1008D0000895A1E21A2EAA1BBB1BFD010DC0AA1F81
:1008E000BB1FEE1FFF1FA217B307E407F50720F099
:1008F000A21BB30BE40BF50B661F771F881F991F14
:100900001A9469F760957095809590959B01AC015C
:10091000BD01CF010895A29FB001B39FC001A39F65
:10092000700D811D1124911DB29F700D811D112428
:10093000911D0895991B79E004C0991F961708F03E
:10094000961B881F7A95C9F7809508950E948B049D
:10095000332312F48A1B9B0B0C94B0040E948B046B
:10096000B7FF0895821B930B0895EE0FFF1F0590AC
:0A097000F491E02D0994F894FFCFF4
:00000001FF
